{
  "transactions": [
    {
      "hash": "0x6492b2d9fe790507c8458775ae8ddc10dd52408c915bc187fc077ccb3ec92d03",
      "transactionType": "CREATE",
      "contractName": null,
      "contractAddress": "0xc526043eda8baeebdbdffae13b2cf601adc2b660",
      "function": null,
      "arguments": null,
      "transaction": {
        "from": "0x4dabf0652f649fbf2d2a9f56940ba6139fc39405",
        "gas": "0xc6059",
        "value": "0x0",
        "input": "0x6080806040523461001657610a50908161001c8239f35b600080fdfe60806040818152600436101561001457600080fd5b600091823560e01c90816330a3a20e146102375750806343db3c72146101c05763d588b4591461004357600080fd5b346101bc576103c0806003193601126101b8576101443681116101b457610284913683116101b057366103c4116101b05760209450835192858401926004358452358585015235606084015260243560808401526101643560a08401526102a43560c084015260443560e0840152610184356101008401526102c4356101208401526064356101408401526101a4356101608401526102e4356101808401526084356101a08401526101c4356101c0840152610304356101e084015260a4356102008401526101e4356102208401526103243561024084015260c43561026084015261020435610280840152610344356102a084015260e4356102c0840152610224356102e08401526103643561030084015261010435610320840152610244356103408401526103843561036084015261012435610380840152610264356103a08401526103a43581840152825261019b826103f7565b9051902090516001600160f81b039091168152f35b8480fd5b8380fd5b8280fd5b5080fd5b50346101bc576101a03660031901126101bc5736610104116101bc5736610144116101bc57610184903682116101b857366101a312156101b85751906102058261042a565b816101a4913683116101b057905b828210610227578461022485610446565b80f35b8135815260209182019101610213565b839150346101bc576105403660031901126101bc5736610104116101bc5736610144116101bc576101843681116101b8576102c43681116101b457610404903682116101b05736610544116101b057602084019235835235858401523560608301526101a43560808301526102e43560a08301526104243560c08301526101c43560e083015261030435610100830152610444356101208301526101e4356101408301526103243561016083015261046435610180830152610204356101a0830152610344356101c0830152610484356101e083015261022435610200830152610364356102208301526104a43561024083015261024435610260830152610384356102808301526104c4356102a0830152610264356102c08301526103a4356102e08301526104e435610300830152610284356103208301526103c435610340830152610504356103608301526102a4356103808301526103e4356103a08301526103c0610524358184015282526103af826103f7565b905190208251906001600160f81b03166020820167ffffffffffffffff8111838210176103e3576102249394528152610446565b634e487b7160e01b84526041600452602484fd5b6103e0810190811067ffffffffffffffff82111761041457604052565b634e487b7160e01b600052604160045260246000fd5b6020810190811067ffffffffffffffff82111761041457604052565b90604080516104548161042a565b60209081368237825194828601906101049081358352610124358689015260609388858101865160809060005b8a828210610a03575050505003601f8019918281018c52011689019867ffffffffffffffff998181108b8211176104145788527f30644e72e131a029b85045b68181585d2833e84879b9709143e1f593f0000001948591519020068152865193878486377f032826efd3da14888756b1889f120cf1711b82a77c8d1422e6bcf0436ac1ce5e888601527f01662a6d31bc7ffa43d1a466cf157dd76ff27680f3936151df88a31e3d1b795c868601527f2011f1ea76efd601e525ca6f68d2bb07385711a85d135ce5410bd9a1a9f0da7060808601527f11c0cc9c7b6a10e9e9cc696945597e175321a256f42d571d0ccd602175908c8f60a086015261014492888460c0880137610100917f0a21766bc1fe523f08b885b4011fbae89777991c318ffd6127cd45ef256d3f7a83880152610120937f03d6ebd8b1d35d15507a3e0fc9ae20e20e7dc2f3ad0dde07b4c1b9c353b3cad685890152610140957f1d379ec314086e52b27f935e089d0f689b8035108d6e26cde35ec4212a406280878a0152610160977f1bccaa80fa28cc639c7f288bd6dc8eca093585ce54f82b92acb5928d6ee545e8898b0152610180998c818c8160085afa905116156109f2578c9d9e8d9b9c9d519b8c01908c821090821117610414578e528a903683116109ed578d90915b8383106109dd575090508d809250519b8c9381848601937f184932331b713e5635bb7e0443166753b1a3b9cb8a6cdb59e89bcc6f567e15c887528087019e8f7f2f535d862892b75efbb060b71ac0d80de3ed7709fbe9f07a6d435b6933a2fe92905280518652015195019485528d8481805a906006608092fa97600085526000875251906080810198828a528887808888815a600790fa93805a906006608092fa9310161616947f0e79c9a617690548a2bd3f098c025014522c02817c98f4abe46ce803b31ebd2e84527f199155d53afcaf3058138da8194650172b48259bea110fce7a6571c583e0d048905251809652815a600790fa918c8b805a906006608092fa93101616166001169651955196156109cc57927f236ad71ff63cf1e83eaf8f2a3b255c4acedccd5bb4cc40d08925bf0367b74856600498979695937f1e87dfbc0e15687d9b98cad686ad8a3b2fbadb4e8bcb25ac146b46633ab16ac87f13918ac57d51930fbbde9ef4edadd0f8452d95a48cc8d15a88a7ffc85a5d98e3947f021b8bfa93c806690419599de5f2014a99adef3c695823a7b3a0c3ea7a14d5c9887f05b5a6e0242a1be7b69ea0aec06b80141100e461f7509299e101f6de6b410955998f519e8f378d01528b01528901528701528501527f276ba5104aa5e5d103ad8c64d1b4524bfb65c0bd0d61428347bd630f9647857b6101a08501527f1999c9b3857b55a30a5a9d57ff60ed8cc4672bbd8bd777325fd26c746fe628906101c08501527f144c1cf6a462d5494e52cc331eecf618d67eca3ed935df9592e32f3c13dd86eb6101e08501527f1c1bf941d3a1df4a0c7ab35e7cde95db0d8045262be4666879b07dd2754aff2a6102008501527f289aceba05f5758f8d639a9e1b78f53c18efe25acbbcb110c71d26a2c5ce1f7d6102208501526102408401526102608301527f0f81a3fbbf1fae092e1c314b75bb154515e82213991b95f2248cb0a8c968ceda6102808301527f2ef50caab497754de5e44560eb6413a585935b4ed7f0f9552ab49c25aa3fa5106102a08301527f294009d0a3889406bc9ba32f49694ed6e519f85bbbba77c5b7e22071b19d3ba76102c08301527f1b1f82c5746904927f255ffeedeeb55dcacbd0a176bc59290cc383dc62d4fe216102e0830152816103008160085afa905116156109bc5750565b51631ff3747d60e21b8152600490fd5b885163a54f8e2760e01b8152600490fd5b82358152918101918e9101610664565b600080fd5b8c516351d49ff760e11b8152600490fd5b835185528e9550938401939092019160010161048156fea264697066735822122057fd66aea461541e40f28425068241efe3935b0122b158531ce3bff6037ff7ef64736f6c63430008110033",
        "nonce": "0xb",
        "chainId": "0xaa36a7"
      },
      "additionalContracts": [],
      "isFixedGasLimit": false
    },
    {
      "hash": "0x5812b720bbd2c0ca4440efdc3d8ccbfe030c23ba8f04972a42e87cc98b60a5a2",
      "transactionType": "CALL",
      "contractName": null,
      "contractAddress": "0xc526043eda8baeebdbdffae13b2cf601adc2b660",
      "function": "callVerify10Signatures(uint256[8],uint256[2],uint256[2],uint256[10],uint256[10],uint256[10])",
      "arguments": [
        "[2947811175628704651890805338165900063314620724399580797186528846709326863565, 11212696934544203914526931423703138985241462819238740142158589527260739437034, 8276340765765733731678181255777176587595501053633050660043143271748621840329, 15506682676027999150368481441275315580220228448673006368339311422617465345498, 12100780812385558290790910725693953201310557907265134069430165816389720892548, 9496804787894397043506017293610598244462208705738023787145318772578596781497, 887018692499364390279309866663523787558389315986405855249473117675886963124, 16235174986311002420730362886704376738818473003893098137170420127431920757115]",
        "[1432887509472622133471911883151491623557265921920466390226096739213725240642, 9714395698902037118119444204658867535131909766102079169833514155784025080650]",
        "[20558395277592570558366515836271566129170852501992936479153455068210798013213, 15631334446457589661937702532879530726487393263377211619757050833685243372141]",
        "[1384824809569390941801363477630755281982508350333757743578060563047017927540, 26361342015147718777916295164205571736423726527620889426640423532196218092820, 106063408406035933922365934360981980014762118002797233281419926596180921730461, 90920197641634333007977074462869334835395050249727271276310119380495192248534, 26795830939959023084041892554569949207922611866656922271266921006733224362315, 6399410798729527670242086860089593786165326621132273117714381143604071197638, 21046889916987926529486991464952583979792678273763580146370626151392082757861, 7750623079004713254497388623505541525742233600637669148098973177169060507572, 105145852640822690372260115306788015895921213145121622408567034292927262796992, 82993089591796678585566483075649552458580826163236075239447406213096719111866]",
        "[45675310423227166180334525075638189614159281159335730306452199626155920806428, 33541885570189542392462605049499541770171611035231423257039745012790949292545, 18643976434357083048755484337013700761705276243907665826490264806359198969892, 42818678686492931620407475099276469320919270787886588633220418998937818066930, 112181177157134272879189210796913968592033168952430599156448629865353876548749, 81662942318093533267646106603310359912206292238242115638275576985674393347247, 79558623060859592691578130860263316595612044767793264277973854244993011739848, 78005020565802621936897876507264307404160322299402401286915905465252252577289, 88730605364652119008236520808962827555924800990551770760081564936936978530733, 91833144278177137564046001204962552843470238878941436621088921155992777274779]",
        "[6127975441068436442099195569364960639280735525308815596179928912684111569199, 111747397941664030254474560427679544173457003856999717821087525527029503078778, 15640992396739195823219124024114420282773806661948247939822005967013948401593, 17661589604377898307378725605257094368251942601610946729691821196467512779965, 111538247278032507703652226423284630189754081091878149212951321561442470299672, 101009141937712559687247410549394398428294836837430100504679271196248976690981, 34905732307705634464193721502774732795643962010239893197923192610861976038066, 53671727021021757057397609055529536934600854556151653730326052254080203652209, 31915938204993331628414779978560836277828804667391038531321223253463290791324, 36132051239392672317271382595712792136549469372125722841995965942039522937386]"
      ],
      "transaction": {
        "from": "0x4dabf0652f649fbf2d2a9f56940ba6139fc39405",
        "to": "0xc526043eda8baeebdbdffae13b2cf601adc2b660",
        "gas": "0x7df28",
        "value": "0x0",
        "input": "0x30a3a20e068466e96fe3e43a47a45a219d48ebffc731102fbf921bb681d929f8ccd7dccd18ca295c5aa34118e0d51a10514b1febddd32c5655296b434aa8731a324081ea124c3e2cbc52722ee1827e22b984bec788d57bed83d02fb45e88a5f8df402fc9224878ab963945288e9ec5305622e6e9e4dda3b8b859d0630b6095d6d67755da1ac0cc9a2c98ecb5dede94825d0ff08b8767e9b5fe13c843d16f423a1858648414ff00434fb50f3716b5f2011c341175eef7c0e8e478e9fac850d10e63e97db901f608e7e6620bded6a2472ec329d0affe52ecd5e4af62299476eef15dd769b423e4c88d2ac7f2062aa77082a4bd9967a69590bf61a0ab657ea02ea35a10a97b032afc4fa24014e503d42052a52ff814628c7ee24cf555f1c08f09b365f98d42157a2732c40aba0a752ba9b09c236b146f8166763dc6e596c021ede0650b034a2d73a3ae1e7d1365ae44c36204fb9280dedcc250db8d4f24858a8969ed542b1d228f0592b8f77f4d8ad72ff574af1b6e1afdcad2324cbbf1280d45a60a22226d030fc87703466a9a307c5b7fbbe6985b1e792a30be19a4c8484a0290a72cd3743a47fda76dfab30b1080e0a4a6c03c99ad93238845dc5b24c870f86c83c53d14ea7dc30439b41a09fcce47013c2485f8a2c15ab35c911ac5e8ee6983dd5ec59dc903021b240253fa0b3c464f63f0b1e40a1f3371fcce23190c612d4ec7a350d63b3de7215a4eafccf3ea1b57c984b748a8094b501df870ff462a4a33f4dcc14b0e25f02af448763e065b1a48e4b03d2808222834dd4edd30a48dabafd61b6bc62e881e17544ec4554455490171cc9a3462d46bf2f751f4d8fd1c2813067d88e51122b27bf689e5552e9e5edc817409fb752fb0496290761ded3acd3077272fb4e8767191589bd381f8f767b567b7e565dc7b1f8b7513b5644454fdb5f74aacc0b77c6c8fc8d15b8e8af67203f645e806811fc6aa3ca2c40cc9ea4583af09d6ba64fb4f3f905cba8eb0aaff5ed5ba5e3d7e44d8d6beaefb471882b85e7959521c4a2808d2a04201782f0a5612ec82a1a823ec100fe5bea4c9d0da5e61c383aa0129381de0a2c9721e368d7a672c8ee575fe665e0812982fc467df930db4f9b0245eaa83677b83cbb574418866c38cd801ded44e0eaa67420c3c9e8caf31796ff2f8044bd306a66e01e5025825694ba440b72acf56af3572338edb073bc1a32c8db48b965f4b8829a8e68dd2b2640cab9fc1850e14a2ae3a6a094b25e9b8e064afafe495bbf9c293748a448da6a6a4ca6b65ead35b1b3a6febad5f793f19d2ecc8ac7546ecabf713aa638ac3736f47dd2c74aab231b9737d5153391e11bf256e09c42bbe2fba54ffbc5f7da1a2804e0b899ece2fc7565814ce62ef27a4a4be41adcb07b7bbef90998a7a6c8f66d2fb1bacc81d5b02c76e090ed557b167c4b6359b0d8c4fa9f90482d7684103af38731a4169fee0722c8eead6d2a1d9586a3f212ff70ec92daf732c02bfb4becee841c8842df0f84171fa673c8d4bb25aa881b17a22947cec0226a5260e347d8e2dfe860265b5c422fbac09f498c7ab0f79bba7b9270c1affea2d65ddf8b4d89285cedc63b91525e4a2db4a72d8ff7ee3e373a4bdf698692867ddbbdc8d4b1cc74ec9a3006de9afe2c7800e807dd770edf5e38818df5125f9829de6a11fcb351dac59a43716712ae9997869279c95d0a84de88f254d2bf1c1b32ce4fff460b17c3d56f6b5ce0727102ba2615f2dbd8ac183a2aab276a91ef7d809f1b1ea58654ba009b5093d3a7c5b747a18667e4a0282a3327c71468fc7e6f2ff60977e454b01648f2ec171a79c1e95ee935fa09365d23696c59c4fe2042af0eadc082b87c5cc7e9ebb6cfe16d346f2b08aee7cf7396b1aad8a2a",
        "nonce": "0xc",
        "chainId": "0xaa36a7"
      },
      "additionalContracts": [],
      "isFixedGasLimit": false
    }
  ],
  "receipts": [
    {
      "status": "0x1",
      "cumulativeGasUsed": "0x17251a3",
      "logs": [],
      "logsBloom": "0x00000000000000000000000000000000000000000000000000000000000000000000000000000000000000000000000000000000000000000000000000000000000000000000000000000000000000000000000000000000000000000000000000000000000000000000000000000000000000000000000000000000000000000000000000000000000000000000000000000000000000000000000000000000000000000000000000000000000000000000000000000000000000000000000000000000000000000000000000000000000000000000000000000000000000000000000000000000000000000000000000000000000000000000000000000000",
      "type": "0x2",
      "transactionHash": "0x6492b2d9fe790507c8458775ae8ddc10dd52408c915bc187fc077ccb3ec92d03",
      "transactionIndex": "0x71",
      "blockHash": "0xab08646f9601e4f054adf9e35cea9e3f7de4a4814ec3a1b09e7aa6dc17635705",
      "blockNumber": "0x68667a",
      "gasUsed": "0x985d9",
      "effectiveGasPrice": "0x107a11",
      "from": "0x4dabf0652f649fbf2d2a9f56940ba6139fc39405",
      "to": null,
      "contractAddress": "0xc526043eda8baeebdbdffae13b2cf601adc2b660"
    },
    {
      "status": "0x1",
      "cumulativeGasUsed": "0x177b386",
      "logs": [],
      "logsBloom": "0x00000000000000000000000000000000000000000000000000000000000000000000000000000000000000000000000000000000000000000000000000000000000000000000000000000000000000000000000000000000000000000000000000000000000000000000000000000000000000000000000000000000000000000000000000000000000000000000000000000000000000000000000000000000000000000000000000000000000000000000000000000000000000000000000000000000000000000000000000000000000000000000000000000000000000000000000000000000000000000000000000000000000000000000000000000000",
      "type": "0x2",
      "transactionHash": "0x5812b720bbd2c0ca4440efdc3d8ccbfe030c23ba8f04972a42e87cc98b60a5a2",
      "transactionIndex": "0x72",
      "blockHash": "0xab08646f9601e4f054adf9e35cea9e3f7de4a4814ec3a1b09e7aa6dc17635705",
      "blockNumber": "0x68667a",
      "gasUsed": "0x561e3",
      "effectiveGasPrice": "0x107a11",
      "from": "0x4dabf0652f649fbf2d2a9f56940ba6139fc39405",
      "to": "0xc526043eda8baeebdbdffae13b2cf601adc2b660",
      "contractAddress": null
    }
  ],
  "libraries": [],
  "pending": [],
  "returns": {},
  "timestamp": 1728445015,
  "chain": 11155111,
  "commit": "86bbe27"
}